:020000040000FA
:10000000100500208D0200009502000097020000FC
:1000100000000000000000000000000000000000E0
:100020000000000000000000000000009902000035
:1000300000000000000000009B0200009D02000084
:100040009F0200009F0200009F0200009F0200002C
:100050009F0200009F0200009F0200009F0200001C
:100060009F0200009F0200009F0200009F0200000C
:100070009F0200009F0200009F0200009F020000FC
:100080009F0200009F0200009F0200009F020000EC
:100090009F0200009F020000750300009F02000005
:1000A0009F0200009F0200009F0200009F020000CC
:1000B000850300009F0200009F0200009F020000D5
:1000C0000348854602F000FC00480047A9020000F2
:1000D00010050020002065490860012040046349A4
:1000E000C039486006206249087000204870084600
:1000F000C0788006800E202108435D49C8708020AA
:100100005C49087000205A490871487100BF58487E
:100110008079102108400028F9D000BF5448807928
:100120000C2108400028F9D1704770B5504800787C
:10013000C0210840002868D14D484079402108403E
:1001400000284ED14A48007804210840002815D1E3
:10015000494C4748007838210840C10801208840B0
:10016000C5B22946204600F032F90446404840789E
:1001700030210840002803D0640901E00124E40391
:100180003B48C078E0210840C106C90E002926D1AD
:100190004011030002F0D5FB0805090D1115191DCA
:1001A00020230520C00144431AE0052000024443F7
:1001B00016E00F20C001444312E0052040024443F2
:1001C0000EE0B720800044430AE0B720C00044435B
:1001D00006E02A48444303E02948444300E000BFC6
:1001E00038E023480079C006C00E451C2946224845
:1001F00000F0EDF804461E484079C006C00E0546E2
:10020000183520466843044624E019480078C02188
:100210000840402815D116484078C007C00F002874
:1002200002D10124E40315E01148007A0E221040A7
:100230004208012090400146124800F0C8F80446E8
:1002400008E00B480078C0210840802801D10A4C02
:1002500000E070BD0548C0384068000F411C2046D2
:1002600000F0B5F80849086000BFF2E700810440DB
:10027000004006400050064000127A009508000039
:10028000710B000000093D00000000200448804779
:1002900004480047FEE7FEE7FEE7FEE7FEE7FEE76D
:1002A000D5000000C100000010B5002400F075FC6E
:1002B0000821022000F05CFB4B21C901174800F027
:1002C000A2FE01F03DFC02F063F802F07BF80E2183
:1002D000134800F065F81121114800F061F8114849
:1002E00001F080FE00F057FC13E0002404E00E480B
:1002F00001F09FFE601CC4B2012CF8DB01F01EFE71
:10030000002800D106E001F095FC01F012FD01F09B
:100310009EFDEAE700BF002010BD0000D88C000061
:1003200000F00F4050000020484010007CB504460B
:100330000D4668460470019500F06AF8012200211C
:10034000204600F0C1F8162001218140114A1160B9
:1003500000BF204600F0A2F87CBD10B50021084681
:1003600000F0CDF80446012C03D10E210A4800F01C
:1003700026F810BD10B5FFF7F0FF0021084600F089
:10038000CFF810BD05480068802108430349086084
:100390007047000000E100E000F00F400000044062
:1003A0003EB504460D466846058001218170002156
:1003B000C17008210171029401F026FA3EBD70B5AA
:1003C00004460D462946204601F083FB70BD30B53A
:1003D0000B46014600202022012409E00D46D540AD
:1003E0009D4205D31D469540491B25469540401921
:1003F0001546521E002DF1DC30BD70470000000094
:10040000FFFFFFFFFFFFFFFFFFFFFFFFFEFFFFFFFD
:1004100070B50446002500F097F8474988697D21AA
:10042000C900FFF7D4FF6168484305464348C06BE5
:100430000121C90508434149C863414800680221B8
:1004400088433F49086008460068012108433C4949
:1004500008603C48217809014550002122781201AA
:100460008018C1603748217809014018816801204F
:1004700001433448227812018018816070BD014622
:1004800030480A018058704701462E480A018018FA
:10049000406870472B4A0301D15070472949020137
:1004A0008918896801221143264A0301D2189160F4
:1004B000704724490201891889684A085200214975
:1004C0000301C9188A60704730B5002916D1012A86
:1004D0000AD11C4B04011B199B6802242343194CAD
:1004E00005016419A36009E0164B04011B199B6800
:1004F0000224A343134C05016419A36030BD0246D6
:1005000000290BD10F481301C018C068C007C00FE5
:10051000002801D0012070470020FCE70020FAE706
:1005200010B5084A0301D218D26801231A43054BBB
:1005300004011B19DA6010BD68000020008004402F
:10054000007003400071034010B5FE48406A000F80
:10055000030002F0F6F90504080C1014180000203E
:10056000F949087013E00120F74908700FE00220F4
:10057000F54908700BE00320F349087007E00420F8
:10058000F149087003E0FF20EF49087000BF00BF89
:10059000EC48406A0007000F030002F0D2F910098E
:1005A0000D1115191D2125292D3135393D4145499B
:1005B0001020E54988803FE01820E34988803BE02F
:1005C0002020E149888037E00020DF49888033E03F
:1005D0003020DD4988802FE04020DB4988802BE0F7
:1005E0005020D949888027E00020D749888023E01F
:1005F0006420D54988801FE00020D34988801BE013
:100600000020D149888017E00020CF49888013E07E
:100610000020CD4988800FE00020CB4988800BE086
:100620000020C949888007E00020C749888003E08E
:100630000020C549888000BF00BFC248406A0F2122
:1006400009030840000B002804D0012806D0022826
:100650000CD107E00A20BC4988700BE00B20BA4996
:10066000887007E00C20B849887003E00020B64984
:10067000887000BF00BFB3484030C0680F21090632
:100680000840000E030002F05CF9104C090E13182C
:100690001C21252A2E33373B3F43474C0120400382
:1006A000A949886041E001208003A74988603CE0B7
:1006B0000120C003A449886037E00020A249886077
:1006C00033E001200004A04988602EE000209E490C
:1006D00088602AE0012040049B49886025E00020D2
:1006E0009949886021E001208004974988601CE0D6
:1006F00000209549886018E000209349886014E044
:1007000000209149886010E000208F4988600CE04B
:1007100000208D49886008E0012080048A498860B3
:1007200003E000208849886000BF00BF8548406A18
:100730000F2109040840000C030002F002F908052B
:100740000A0F14191E23282D012040027E4908613A
:1007500023E0012080027C4908611EE00120C002E4
:100760007949086119E0012000037749086114E024
:1007700001204003744908610FE0012080037249A1
:1007800008610AE00120C0036F49086105E001200B
:1007900000046D49086100E000BF00BF6B480068BD
:1007A00069494861674840304068000F411C67480C
:1007B0000068FFF70CFE6449886162484030406879
:1007C000072212041040000C411C60480068FFF72B
:1007D000FEFD5D4908620020C8615A48403040680B
:1007E000072212041040000C411C58480068FFF713
:1007F000EEFD5549886110BD30B5030002F0A1F847
:10080000050424446484B5004E4B9B6B01246402B0
:1008100023434C4CA3638B004D4C1B191B680724CE
:100820002402A3438C004A4D641923608B002C469C
:100830001B191B68140207252D022C4023438C0032
:10084000434D6419236091E03E4B9B6B0124A4024D
:1008500023433C4CA3638B003E4C1B191B680724AD
:100860002402A3438C003B4D641923608B002C466B
:100870001B191B68140207252D022C4023438C00F2
:10088000344D6419236071E02E4B9B6B0124E4020C
:1008900023432C4CA3638B002F4C1B191B6807248C
:1008A0002402A3438C002C4D641923608B002C463A
:1008B0001B191B68140207252D022C4023438C00B2
:1008C000254D6419236051E01E4B9B6B01242403CA
:1008D00023431C4CA3638B00204C1B191B6807246B
:1008E0002402A3438C001D4D641923608B002C4609
:1008F0001B191B68140207252D022C4023438C0072
:10090000164D6419236031E00E4B9B6B0124640388
:1009100023430C4CA3638B00114C1B191B68072449
:100920002402A3438C000E4D641923608B002C46D7
:100930001B191B68140207252D022C4023438C0031
:10094000074D0FE0008004406800002000000020F8
:100950000090044000A0044000B0044000C00440E7
:1009600000D004406419236000E000BF00BF30BD28
:1009700070B504460D46002C45D1012040048A493B
:1009800048608A480078062108438849087000209A
:1009900048700846C078602188438449C870032D98
:1009A0000ED0042D19D10846C078A02108437F49F4
:1009B000C870A8037C4948607D487E4908600CE007
:1009C0007A48C078802108437849C8700020764969
:1009D000486079487749086000BF00BF80207749A8
:1009E0000870002071490871487100BF6F48807914
:1009F000102108400028F9D000BF6C4880790C21F4
:100A000008400028F9D1022C71D167484038806B2A
:100A10002102084364494039886369486249486053
:100A20006848806868490840664988600846C06828
:100A3000654908406349C8608920604908703420CE
:100A40005A494870BA2008700846C078C006C00EDF
:100A5000C87018200871E81E030001F072FF0E1321
:100A60000833291E3D49606060606060546000206A
:100A70004E494871012000044B4948604C484D499B
:100A800008604CE0002049494871012000074649B0
:100A9000486049484749086041E018204349487187
:100AA000012040044049486048484249086036E017
:100AB00010203E49487140033B49486044483D4945
:100AC00008602CE0082039494871400336494860E5
:100AD00040483849086022E01A2034494871012012
:100AE0004004314948603C483249086017E043E01F
:100AF0001F202E494871012040042B494860374887
:100B00002C4908600BE0132028490871182048710F
:100B100040032549486032482649086000BF00BFAD
:100B200000BF22488079102108400028F9D100BF79
:100B30001E4880790C2108400828F9D11B484079CB
:100B4000402108431949487100BF184880790C2199
:100B500008400828F9D100BF144880794021084096
:100B60000028F9D01A201149087000BF0F48807979
:100B70000C2108400C28F9D1FFF7E6FC70BD704746
:100B800000BFBFF34F8F17481749C860BFF34F8F9F
:100B900000BF00BFFEE762B6704772B670471249E9
:100BA0008860704701207047408004400040064044
:100BB000006CDC020000002000366E010050064090
:100BC0000000011040900440FFF8FFFE00D8B80577
:100BD00000B4C4040090D00300E1F50580778E06D0
:100BE000000E27070400FA0500ED00E00146086A40
:100BF000402398430862486A082398434862486A39
:100C0000800880004862486A032318434862486AA3
:100C1000042318434862486A80231843486200BF8F
:100C20000868802318400028FAD0486A40231840FA
:100C3000402801D1012070470022C86C82B2886C24
:100C4000801882B2486C801882B2086C801882B218
:100C5000C86B801882B2886B801882B21046D30F9E
:100C60001B185A100120C0030243CA620022C86E3A
:100C700082B2886E801882B2486E801882B2086E86
:100C8000801882B2C86D801882B2886D801882B2D6
:100C90001046D30F1B185A100120C00302430A63E9
:100CA000486A8023984348620020C4E7F8B50646A6
:100CB0006F4C35466F48C06B0121C90608436D492A
:100CC000C863A0680C218843A060A068716889008F
:100CD0000C2211400843A060A06880088000A0603A
:100CE000A068A060A06810218843A060A06860216F
:100CF0008843A060A0680843A0602868C003400F34
:100D000001280CDD28680002800F80002058202177
:100D1000084329680902890F890060500BE02868A0
:100D20000002800F80002058202188432968090292
:100D3000890F890060502046FFF758FF0746308929
:100D4000002804D1206A40210843206203E0206A81
:100D500040218843206200270EE02B88DB055A0FD4
:100D60002B889B04DB0EDB19D9B22B789B06580F1E
:100D7000FFF742FD781CC7B22868C003400FB84295
:100D8000EBDCF8BD30B5002A0FD1012B06D18C0069
:100D9000045940252C438D00445105E08C00045932
:100DA0004025AC438D00445100E000BF00BF30BD82
:100DB00010B500290BD1012A04D1036A042423436E
:100DC000036203E0036A0424A343036200E000BF5C
:100DD00000BF10BD01B5264A694608680002800FB1
:100DE00080001058400940010B681B029B0F9B00BC
:100DF000D05008680002800F800010580B689B02DA
:100E0000DB0E18430B681B029B0F9B00D05000BFEA
:100E100008680002800F80001058802318400028C6
:100E2000F6D008680002800F830010461030C058CA
:100E300008BD30B50346002A09D18C001C59802515
:100E40002C40002C01D0012000E0002000E000BF79
:100E500000BF30BD30B5002300BF002A05D18D0092
:100E6000044610346459E3B200E000BF00BF30BD57
:100E700000B0034000800440F0B585B00746002470
:100E80000026002001903E1D30784007400F0028CA
:100E900004D001280CD002281CD112E0F948406B84
:100EA000012189020843F74948630120019013E0BA
:100EB000F448406B0121C9020843F2494863F24CEF
:100EC0000AE0F048406B012109030843ED494863FB
:100ED000EE4C01E0002400BF00BF0198012857D16B
:100EE000E8484068032189068843E6494860084687
:100EF0004068012189060843E2494860E448407996
:100F000040210840002810D0DE484068890208438C
:100F1000DC494860DF484069DA4940314968090FD7
:100F2000491C4843400802900FE0D6484068012120
:100F300009048843D3494860D6484069D1494031C3
:100F40004968090F491C48430290D348C0780C21D6
:100F50008843D149C8700020887038680101029820
:100F6000FFF735FA85B2CC48007840094001CA49FC
:100F7000087008460078E904C90E0843C64908709D
:100F80004D700846C0780C210843C349C8701CE066
:100F9000E0780C218843E0700020A070BD48806993
:100FA0000290386801010298FFF711FA85B22078A3
:100FB0004009400120702078E904C90E08432070E0
:100FC0006570E0780C210843E0700020039012E087
:100FD0003088C005420F30888004C30E039818186B
:100FE000C1B230788006400F0090FFF705FC0398EF
:100FF000401CC0B203903068C003410F0398814287
:10100000E6DC05B0F0BD33B583B00C4603AD01940A
:101010000398029028784007400F002804D0012848
:1010200006D002280CD107E09B489C4908600BE0E1
:1010300095489A49086007E094489849086003E099
:1010400000209649086000BF00BF01A8FFF714FF09
:1010500005B030BD904A904209D100BF8E4A127946
:1010600080231A40002AF9D08B4AD17118E0864AB1
:10107000904209D100BF844A127980231A40002A85
:10108000F9D0814AD1710BE0804A904208D100BF6B
:101090007E4A127980231A40002AF9D07B4AD17106
:1010A000704702467C48824209D1007920231840CB
:1010B00000281ED01046C079087001207047724881
:1010C000824209D1007920231840002811D010460F
:1010D000C07908700120F1E76C48824209D100799B
:1010E00020231840002804D01046C0790870012041
:1010F000E4E70020E2E710B5044605E02178674800
:101100000068FFF7A7FF641C20780028F6D110BD07
:10111000F8B505460E4631462846FFF758F900282F
:1011200008D031462846FFF752F90746314638467F
:10113000FFF7EEFF31462846FFF749F90C465848BD
:101140000068015D55480068FFF784FFF8BD0FB4E3
:1011500070B505AD00BF0AE0002C03D170BC08BC1F
:1011600004B0184721464D480068FFF773FF049804
:1011700001780C46401C04902529EDD10498047890
:10118000401C0490642C01D06C2C03D10A212868E7
:10119000FFF7BEFF6F2C01D0782C08D16F2C01D146
:1011A000082200E0102211462868FFF7B1FF732CD7
:1011B00002D12868FFF79FFF2D1DCCE710B504462C
:1011C0002102081B3749FFF702F9C0B210BD70B504
:1011D0003548407820210840002802D033A0FFF78E
:1011E000B6FF3148407808210840002802D038A0D6
:1011F000FFF7ADFF2C48407804210840002802D0BA
:1012000038A0FFF7A4FF28484078022108400028B2
:1012100002D039A0FFF79BFF2348007880210840C7
:10122000002802D03BA0FFF792FF1F480078402122
:101230000840002802D03CA0FFF789FF1A48007838
:1012400020210840002802D03DA0FFF780FF16486B
:10125000007804210840002802D03FA0FFF777FF64
:101260001148007808210840002802D043A0FFF769
:101270006EFF0D48007802210840002800D08DE064
:101280008FE000000080044000B0064000C006402F
:10129000004006406800002000A006400400002036
:1012A00008000020FF0F000000F0074053746F702B
:1012B000204D6F64652041636B6E6F776C6564676A
:1012C00065204572726F722052657365740D0A0055
:1012D0000A0D4D444D2D41502052657365740D0A21
:1012E000000000000A0D536F66747761726520522A
:1012F000657365740D0A00000A0D436F7265204C1A
:101300006F636B7570204576656E742052657365EA
:10131000740D0A000A0D506F7765722D6F6E2052A2
:10132000657365740D0A00000A0D45787465726E68
:10133000616C2050696E2052657365740D0A00005F
:101340000A0D5761746368646F6728434F50292002
:1013500052657365740D0A000A0D4C6F7373206F2C
:10136000662045787465726E616C20436C6F636BA8
:101370002052657365740D0A000000000A0D4C6F61
:101380007373206F66204C6F636B20696E20504C26
:101390004C2052657365740D0A000000B1A0FFF780
:1013A000D6FEB8480078030001F0CBFA0504080C1B
:1013B00010141800B4A0FFF7CAFE13E0B8A0FFF79E
:1013C000C6FE0FE0BCA0FFF7C2FE0BE0BFA0FFF718
:1013D000BEFE07E0C4A0FFF7BAFE03E0CBA0FFF714
:1013E000B6FE00BF00BFA7488088002803D1D1A067
:1013F000FFF7ADFE04E0A3488188D4A0FFF7A7FE65
:10140000A04988780A2101F035F80C469D49887872
:101410000A2101F02FF8054622462946CEA0FFF703
:1014200096FE98488068810AD1A0FFF790FE954803
:10143000C068810AD3A0FFF78AFE92480069810A3A
:10144000D6A0FFF784FE8F484169D9A0FFF77FFE41
:101450008C488169DBA0FFF77AFE8A48C169DEA06B
:10146000FFF775FE8748016AE1A0FFF770FE70BDC7
:1014700030B503460020E34CA3424AD1002906D0F0
:10148000012914D0022922D0032940D12FE0012ABA
:1014900006D1DC4CE47880252C43DA4DEC7005E075
:1014A000D84CE4788025AC43D64DEC7030E0012A6E
:1014B00006D1D44CE47840252C43D24DEC7005E0A5
:1014C000D04CE4784025AC43CE4DEC7020E0012AAE
:1014D00006D1CC4CE47820252C43CA4DEC7005E0B5
:1014E000C84CE4782025AC43C64DEC7010E0012ACE
:1014F00006D1C44CE47810252C43C24DEC7005E0B5
:10150000C04CE4781025AC43BE4DEC7000E000BF49
:101510003BE01846002906D0012910D002291AD034
:10152000032930D123E0012A04D1C47880252C433B
:10153000C47003E0C4788025AC43C47024E0012A61
:1015400004D1C47840252C43C47003E0C4784025FE
:10155000AC43C47018E0012A04D1C47820252C4380
:10156000C47003E0C4782025AC43C4700CE0012AA9
:1015700004D1C47810252C43C47003E0C47810252E
:10158000AC43C47000E000BF00BF30BD30B50246C0
:101590000B4600219B4CA24232D1002B06D0012BDE
:1015A0000ED0022B16D0032B28D11DE0954C2479A8
:1015B00080252C40002C01D0012000E000201EE0FE
:1015C000904C247940252C40002C01D0012000E0D3
:1015D000002014E08B4C247920252C40002C01D0D5
:1015E000012000E000200AE0864C247910252C40E0
:1015F000002C01D0012000E0002000E000BF2FE01F
:101600001146002B06D0012B0DD0022B14D0032B3A
:1016100024D11AE00C7980252C40002C01D0012027
:1016200000E000201BE00C7940252C40002C01D06C
:10163000012000E0002012E00C7920252C40002C35
:1016400001D0012000E0002009E00C7910252C4099
:10165000002C01D0012000E0002000E000BF00BF0E
:1016600030BD00000A0D4C6F772D766F6C7461678A
:1016700065204465746563742052657365740D0A52
:1016800000000000680000204B4C30782046616D5F
:10169000696C79286C6F7720656E64290D0A0000EB
:1016A0004B4C31782046616D696C792862617369B1
:1016B00063290D0A000000004B4C32782046616D12
:1016C000696C7928555342290D0A00004B4C337838
:1016D0002046616D696C79285365676D656E74206D
:1016E0004C4344290D0A00004B4C34782046616D70
:1016F000696C792855534220616E64207365676D6B
:10170000656E74204C4344290D0A00000A556E7220
:1017100065636F676E697A6564204B696E6574698D
:10172000732066616D696C79206465766963652EE6
:101730000A000000556E6964656E746966696564C7
:101740002050696E20436E740D0A000050696E438C
:101750006E743A25640D0A0053696C69636F6E52AA
:10176000657649443A25642E25640D0A0000000080
:1017700050466C6173682053697A653A2025644B42
:10178000420D0A00466C65784E564D2053697A65C5
:101790003A2025644B420D0A0000000052414D20C2
:1017A00053697A65203A25644B420D0A0000000017
:1017B000436F7265436C6F636B3A202564487A0D02
:1017C0000A000000427573436C6F636B3A20256416
:1017D000487A0D0A00000000466C65784275734334
:1017E0006C6F636B3A202564487A0D0A0000000094
:1017F000466C617368436C6F636B3A202564487A6A
:101800000D0A000000A0064030B5002200218268C9
:10181000C34C131BA2421CD006DCC24BD318002BB6
:1018200007D0402B2FD10CE0402B1AD0802B2AD18F
:1018300020E0BD49BD4B9B6B4C152343BB4CA363C0
:1018400022E0BB49B94B9B6B0C152343B74CA363F8
:101850001AE0B849B54B9B6BCC142343B34CA3633C
:1018600012E0B549B14B9B6B012424032343AF4CD9
:10187000A36309E0B149AD4B9B6B0124640323438F
:10188000AA4CA36300E000BF00BF03889B00CB58B5
:1018900007242402A3430488A4000B5103889B005F
:1018A000CB58FF24013423430488A4000B5103794F
:1018B000072B02D00379082B21D153690578012425
:1018C000AC402343536103889B00CB580224A343BD
:1018D0000488A4000B518378012B06D11368057886
:1018E0000124AC402343136005E01468057801230C
:1018F000AB409C4314600379072B42D041E003794D
:10190000042B05D00379052B02D00379062B38D19F
:10191000546905780123AB409C4354610379042B3F
:1019200008D103889B00CB580224A3430488A40059
:101930000B5126E00379052B10D103889B00CB586F
:10194000022423430488A4000B5103889B00CB5836
:101950005B085B000488A4000B5112E00379062B9E
:101960000FD103889B00CB58022423430488A40092
:101970000B5103889B00CB58012423430488A40007
:101980000B5103889B00CB580F242404A3430488E5
:10199000A4000B5103889B00CB58C47824040F2566
:1019A0002D042C4023430488A4000B5130BD10B5F6
:1019B000024600235A4C101BA24210D006DC5948A4
:1019C0001018002807D040280FD106E0402808D082
:1019D00080280AD107E0544B08E0554B06E0554BF0
:1019E00004E0554B02E0554B00E000BF00BFA020D3
:1019F000C05801248C402040002801D0012010BD97
:101A00000020FCE710B50022454C031BA0421CD06F
:101A100006DC444BC318002B07D0402B2FD10CE021
:101A2000402B1AD0802B2AD120E03F4A3F4B9B6BA2
:101A3000541523433D4CA36322E03D4A3B4B9B6B33
:101A400014152343394CA3631AE03A4A374B9B6B76
:101A5000D4142343354CA36312E0374A334B9B6BBA
:101A6000012424032343314CA36309E0334A2F4B61
:101A70009B6B0124640323432C4CA36300E000BF51
:101A800000BFA0239B5801248C402343A024A350D3
:101A900010BD0021C17004210171704710B5002AEA
:101AA00005D0436801248C402343436004E08368ED
:101AB00001248C402343836010BD426801238B4086
:101AC0001A4342607047826801238B401A43826048
:101AD0007047C26801238B401A43C260704701609F
:101AE0007047024600201368CB40DB07DB0F002B5A
:101AF00001D0012000E0002070470146086880B254
:101B00007047024600201369CB40DB07DB0F002B38
:101B100001D0012000E000207047014608697047AD
:101B200080F00F400010F0BF00900440008004409F
:101B300000A0044000B0044000C0044000D00440B5
:101B400010B5374800690421084335490861FEF79C
:101B5000FBFC344948693449FEF739FC33490870C5
:101B6000084600787D21C90048433149086010BD0E
:101B700001462E4A12784A43294B5A6100229A6143
:101B80001A46126901231A43254B1A6100BF244AE1
:101B90001069C207D20F002A04D0012212040240A9
:101BA000002AF4D01E4A1269520852001C4B1A61D6
:101BB000704710B5014600221FE01D4B1B68184CF2
:101BC00063610023A36123461B6901242343144C52
:101BD000236100BF124B1869C307DB0F002B04D031
:101BE00001231B040340002BF4D00D4B1B695B0841
:101BF0005B000B4C2361531C9AB28A42DDD310BDAB
:101C000008B50020009006E000BF00BF68460078DD
:101C1000401CC1B20091684600780128F4DB08BD81
:101C200000E000E06800002040420F000C000020AF
:101C3000100000207CB503213AE08C1ED34D2D5DB1
:101C40006C4625704C1ED14D2D5D6C466570CF4C99
:101C5000655C6C46A570CD4D4C1C2D5D6C46E570E9
:101C6000CA4D8C1C2D5D6C462571002218E00020A9
:101C700010E06C46255C6E46441C345DA54207DDD1
:101C80006C46235C6D46441C2C5D2C54441C2B5527
:101C9000441CE0B20424A41A8442EADC541CE2B2DC
:101CA000042AE4DB6C46A478B84D6C544C1CE1B2B9
:101CB0007D29C2DB7CBD30B5024600210020D1B2B7
:101CC00014E0B24B5C5C8B1FB04DEB5C2D339C423F
:101CD0000ADD4B1E2C46E45CCB1FEB5C2D339C4293
:101CE00002DD4B1FD8B203E04B1ED9B20729E8DC56
:101CF00000BF30BD30B5024600217F20D1B214E0D4
:101D0000A24B5C5C1D468B1DEB5C2D339C420ADDB7
:101D10002C464B1CE45CCB1DEB5C2D339C4202DD5E
:101D20004B1DD8B203E04B1CD9B27829E8DB00BFC9
:101D300030BD70B596480068FFF7BDFF0546944872
:101D40000068FFF7D7FF0446312C01DA25467F24CF
:101D5000002D11D07F2C0FD000208E49086028194B
:101D6000401D40108A49086000218B4A1160516073
:101D70008A4A1160516069E0002D2DD17F2C2BD053
:101D8000322C0EDB462C0CDA282085490870854958
:101D90008548824A11605060881084497E4A03C297
:101DA00010E0462C0EDB5F2C0CDA2D207C490870ED
:101DB0007F498048794A116050607F497B48764A64
:101DC0001160506076480078201A71490860002040
:101DD000C0437049086039E0002D33D07F2C31D1E9
:101DE0000D2D0BDA32206E490870744874496B4A25
:101DF00003C274487449684A03C21AE00D2D0DDB12
:101E00003C2D0BDA37206649087070487049634AE8
:101E100003C26C486C49604A03C20AE03C20604936
:101E20000870664866495D4A03C2664866495A4A70
:101E300003C25B48007828185549086001205549BD
:101E4000086003E06349088800F0ADFA70BDF0B5A2
:101E50008DB04F4800686049C8600846C06839388E
:101E60000C900846806839380B900846406839382D
:101E70000A90084600683938099009990C98401A68
:101E80000890089800F024FC044643480CC82046FB
:101E900000F0B6FB059104900B9A0C9989180A9AE8
:101EA0008918099A881800F013FC04464B480CC89E
:101EB000204600F0A5FB06460F460C9800F008FCF3
:101EC000044636480CC8204600F09AFB32463B4692
:101ED0000191009000F0E2FA03910290059B049AB0
:101EE00000F0DCFA0791069000F006FC3C4908601F
:101EF000084600683F2802DD3F20086008E03848B7
:101F000000683F21C943884202DA08463449086024
:101F1000334909684022511A49002E4A803A505AE2
:101F200000F041FA2C4840682B4908600846806858
:101F300048600846C06888600DB0F0BD00220021EE
:101F40001BE01248405CF52808DA104B481C185C6E
:101F5000F52803DD881C185CF5280CDC0B48405C78
:101F6000F52809DD094B481C185CF52804DA881CA3
:101F7000185CF52800DA521C491C7D29E1DB052A92
:101F800001DD002070470120FCE700008C000020EC
:101F900034000020300000204800002038000020DD
:101FA00018000020E17A14AE47E1F63F51B8BE3F79
:101FB0007B14AE47E17AF83FB81E85EB9A99999960
:101FC0009999F53F295C8FC2F528BC3F33333333F1
:101FD0003333F73F7E2E00001C000020400000201D
:101FE0002C00002010B58AB004462068019060687B
:101FF000029005216846818300218177C1770821FD
:1020000008A80170A0680990217D6846018200211E
:102010008174C174082101752069069001A8FEF73A
:1020200045FE07A8FFF7F0FB04A8FFF7EDFB0AB099
:1020300010BD70B5054605215E48FFF73EFD042141
:102040005C48FFF73AFD05215A48FFF73CFD0024A4
:1020500014E004215748FFF736FD6420FFF788FDA0
:102060002846FEF7B7FE5449085504215148FFF7AA
:1020700024FD6420FFF77CFD601CC4B2802CE8DBEB
:1020800004214C48FFF71FFD3220FFF771FD70BDA2
:102090001CB5002415E04848005D4849097888428D
:1020A00004DD47A1684600F021FC05E04248025DDE
:1020B00044A1684600F01AFC6846FFF748F8601C27
:1020C000C4B2802CE7DB41A0FFF741F81CBD70B51E
:1020D00039480578067801240EE03748005DB042A3
:1020E00002DD3548065D05E03348005DA84201DAAF
:1020F0003148055D601CC4B2802CEEDB2A463146B7
:1021000033A0FFF724F87119C80F4018C005000E5E
:1021100070BD70B505462C110A2C06DA2046303009
:10212000C1B23048FEF796FF05E020463730C1B215
:102130002C48FEF78FFF2C07240F0A2C06DA2046C6
:102140003030C1B22748FEF785FF05E02046373022
:10215000C1B22448FEF77EFF70BD70B5044600266C
:102160002A212048FEF776FF4C211E48FEF772FF19
:1021700044211C48FEF76EFF0020FFF7CAFF002035
:10218000FFF7C7FF0020FFF7C4FF0020FFF7C1FFE4
:10219000002505E02078641CFFF7BBFF681CC5B272
:1021A000802DF7DB3046FFF7B4FF23210D48FEF703
:1021B00051FF70BD00F00F408C000020FB2D00008F
:1021C0002000000025303258200000000A000000E6
:1021D0000A206D61783D256420206D696E3D25647F
:1021E0000A00000000A006403EB504460D466846C1
:1021F000058000218170C170082101710294FFF7F0
:1022000003FB3EBDF0B5034614468E4D6D680126B6
:10221000360635438B4E7560162B20D0172B02D017
:10222000182B2AD10DE0874DAD6B0126B602354340
:10223000844EB5630D25AD01834EB5608348002201
:102240001CE0804DAD6B0126B60235437D4EB56373
:102250000D25AD017C4EF5607C4801220EE0794DE4
:10226000AD6B012676033543764EB5630D25AD0182
:10227000774E75617748012200E000BF00BF764DC0
:10228000A84207D16F4DED6B0126360635436D4EE2
:10229000F56314E06F4DA84207D16A4DED6B01263E
:1022A00076063543674EF56309E0684DA84206D1CE
:1022B000644DED6B0126B6063543624EF563490762
:1022C000490F056808260E433543056084602825BC
:1022D000D60007460C37BD51F0BD30B502460B465F
:1022E000162A0AD0172A02D0182A09D102E0574824
:1022F000002106E05548012103E05648012100E095
:1023000000BF00BFCD0004460C342C19636030BD03
:102310003EB500240021684601808170C17004210F
:1023200001714E4802906846FFF76EFA0121684637
:102330000180FFF769FA022168460180FFF764FA1D
:10234000032168460180FFF75FFA00214348FFF749
:10235000D8FB012801D10A2418E001213F48FFF7EA
:10236000D0FB012801D1092410E002213B48FFF7EE
:10237000C8FB012801D1082408E003213748FFF7F2
:10238000C0FB012801D1072400E0002420463EBD07
:1023900000B5334A05211620FFF734FF31491620D6
:1023A000FFF79BFF00BD10B504462F48844200DABA
:1023B00004462E48844200DD044621461620FFF7DD
:1023C0008CFF10BD10B51F48806B0121C902084366
:1023D0001C498863264880680721090288432449EC
:1023E00088600846806889150843214988601B4831
:1023F00080384069042108431849803948610846FB
:1024000000680421084315498039086064220521C9
:102410001820FFF7F7FEFFF77BFF04462146182040
:10242000FFF75BFF10BD10B5044621461820FFF7EB
:1024300054FF10BD10B5044621461720FFF74DFF8D
:1024400010BD00000080044040A0044000A00340F4
:1024500040D00440009003400080034000F10F4052
:10246000093D00002809000002070000210B0000C0
:1024700000B0044070B500242546002801DA01248C
:102480004042002901DA01254942FDF7A0FFAC4294
:1024900000D04042002C00D0494270BDF0B5074644
:1024A0000846584087B0C00F049048000E465900B7
:1024B00040084908BC1A884105D2384631461E46B4
:1024C00017460B4602465800400810434CD0300DCA
:1024D000039040055900400D490D0590401A0290A7
:1024E000402872DA18030121000B09050843019006
:1024F00004980092002805D001995242002088419A
:1025000000920190029840210A1A0199009800F067
:1025100047F905460C466B4607CB00F062F9C01937
:102520007141039A0E0D0023D71756401A467A4080
:10253000164344D0049A002A2DD0029A012A039A05
:1025400015DC1205C01A914101263605001C7141A7
:10255000D20F059ED2070093019202962A46234687
:1025600000F05FF907B0F0BD38463146FAE71605CE
:10257000224A0F46B218C01AB74101210905001CB2
:102580004F4100187F41114618187941E20F10435E
:102590006D19644113E0E2076D0815436408C20732
:1025A0001443039A01261205C01A91413605001CF6
:1025B0007141CE07400830434908C01851412A46AE
:1025C000234600F021F9CDE7FFE7049801224000FF
:1025D000C117121A00238B4104983146C417381AC8
:1025E000A141EEE730B40124E407634030BC55E775
:1025F00030B40124E407614030BC4FE70000E0FF45
:10260000F0B51FB488B00B99099800244840099987
:10261000C00F490049080991C0070B990090490073
:1026200049080B9109990898A64608431CD00B99B4
:102630000A98084318D0099801244000420D480028
:10264000410D099824050003000B204309900B98C5
:102650000003000B20430B9050181C494018002227
:1026600001901446104605E0002001460DB0F0BD73
:10267000032801DA034600E003239C46C11A0AAE90
:102680000AE05F0008ADED5B4F00F75B7D4300277C
:10269000AA187C41491C5B1E6145F2DD410004AB78
:1026A0005A522104120C0A43240C401C0828DFDB78
:1026B000019802900099704601910090059B049A40
:1026C0000799069800F0ADF8D0E700000DFCFFFF79
:1026D0000EB5C217C10F5040CA0740180021054B64
:1026E0000293019200910A460B4600F09AF803B05B
:1026F00000BD00003304000070B5CD0F4A0009038F
:102700000123090B1B0519430B4BED070024520D48
:102710009A4201DA002070BD074B34339A4203DC41
:102720009A1A00F04DF802E00449511888402C43F1
:10273000F1D0404270BD0000FF030000CDFBFFFF61
:10274000F0B51FB40646002082B005464024019132
:1027500000901BE0019922460F46304600F030F809
:10276000049A059B801A994110D3104619462246B7
:1027700000F016F8361A8F410197224601200021F9
:10278000009F00F00DF838184D4100902046641E5F
:102790000028DFDC019B00982946324607B0F0BDD7
:1027A00010B5202A04DB0146203A9140002010BDDC
:1027B000914020239C1A0346E3401943904010BDEA
:1027C00010B5202A04DB0846203AD040002110BD75
:1027D0000B46D340D0402024A21A9140084319460A
:1027E00010BD10B5202A06DBCB170846203A104151
:1027F000C1170B4306E00B461341D0402024A21A18
:1028000091400843194610BD10B5002B08DA00248A
:10281000401C614192185B411A4301D140084000BD
:1028200010BDF0B51FB482B005460C0003D00846B9
:1028300000F070F802E000F06DF8203002460090E1
:1028400021462846FFF7ACFF049B059A04460F4635
:1028500018431143084314D0184610431BD0009866
:1028600040210A1A18460599FFF7AAFF05460E46A9
:10287000009A05990498FFF793FF084305D00120BB
:1028800004E02046394607B0F0BD0020C1170543DB
:102890000E432C43374300990E986305401A79057F
:1028A000E40A00220C43FD0A0A3002D5002001464A
:1028B000E9E70105101969410C9C0D9D001969415A
:1028C000FFF7A2FFDFE70000064C0125064E05E0FA
:1028D000E36807CC2B430C3C98471034B442F7D341
:1028E000FDF7F2FB142F0000342F00000FB410B5D9
:1028F00004A9074B02AA039800F040F8044602A975
:10290000002000F075FA204610BC08BC04B018473F
:10291000F12D00002021020C01D010211046020AE6
:1029200001D010460839020901D01046091F82085B
:1029300001D01046891E420801D0881E7047081A2F
:10294000704730B47446641E2578641CAB4204D3CF
:10295000635D5B00E31830BC18471D46F8E702E0F2
:1029600008C8121F08C1002AFAD17047002001E0F0
:1029700001C1121F002AFBD170470000FFB591B0C2
:102980000F460546002606E025280AD0149A13991A
:1029900090476D1C761C28780028F5D1304615B07C
:1029A000F0BD002400940121F34A029400E00443A6
:1029B0006D1C2B780846203B98401042F7D12878B0
:1029C0002A280ED0022128780246303A092A15D842
:1029D000009A0A235A43303A80180C436D1C009029
:1029E000F1E701CF0090002805DA012040030443FD
:1029F000009840420090022004436D1C28782E2845
:102A000015D10420044368786D1C2A280AD101CF0F
:102A10006D1C02900BE002990A2251433039401894
:102A20006D1C02902878014630390929F3D928789D
:102A30006C2810D006DC4C281AD068280ED06A28E2
:102A400017D104E0742813D07A2812D110E00120A5
:102A5000400504430CE00121090501E003210905BB
:102A60000C436978814203D10120000524186D1CB4
:102A70006D1C287803906E281ED00CDC632831D0A2
:102A800004DC00288AD0582811D1B2E064287BD019
:102A900069280CD178E073282DD004DC6F2870D021
:102AA000702804D1A7E075286CD078286BD0149AD0
:102AB00013999047761C62E06002400F022807D00D
:102AC00003280AD0042838680AD006603F1D56E063
:102AD0003868F11706604160F8E738680680F5E766
:102AE0000670F3E73878694608740020487404A833
:102AF0000390012003E0386803900020C0433F1D8D
:102B000061070FD5002101E00199491C029A01914A
:102B1000914213DA8142F7DB019A0399895C00291B
:102B2000F2D10BE0002101E00199491C01918142A1
:102B3000FADB019A0399895C0029F5D10199009883
:102B4000139A401A00902146149B00F03BF901991A
:102B50008019461807E0039803990078491C0391EF
:102B6000149A139990470198401E0190401CF2D18D
:102B70002146149B139A009800F014F986196D1CD5
:102B800009E741E033E034E00A2000210490059198
:102B90006002410F022905D001CFC21794460329D4
:102BA00005D007E0FF1DFF08FF0003CF06E000B2DD
:102BB000C2179446042902D140B2C1178C460022A4
:102BC0006146944506DA0A460021404291418C460E
:102BD0002D2102E0210504D52B216A461176012121
:102BE00003E0E10701D02021F7E7019154E00A203A
:102BF0000BE0102009E01020049000210420044381
:102C000008200591029003E008200021059104901E
:102C10006002410F022905D001CF0022944603290A
:102C200006D006E0FF1DFF08FF0003CF8C4603E03F
:102C300080B2042900D1C0B20021019121072BD517
:102C40000399702906D0049A1021059B4A401A4323
:102C500005D00EE040216A461176012108E0614668
:102C6000014306D030216A4611760399517602213C
:102C70000191049A0821059B4A401A430CD16146F0
:102C8000014301D1610707D530216A461176012140
:102C900001910299491E02910399582904D037A144
:102CA00003910FA90F910DE039A1F9E76146059B4A
:102CB000049AFFF745FD039B8C469B5C0F9A521EBE
:102CC0000F92137061460143F0D10F9807A9081ABB
:102CD00020300390600704D501200004844302984B
:102CE00001E0012002900399884201DD401A00E0D2
:102CF000002041180290019809180098401A00908D
:102D0000E00306D42146149B139A009800F05AF869
:102D100086190020049008E006A9085C149A13990B
:102D200090470498401C761C049001998842F3DB7C
:102D3000E0030CD52146149B139A009800F042F84A
:102D4000861904E0149A302013999047761C029952
:102D5000481E02900029F5DC08E00F980F990078D2
:102D6000491C0F91149A13999047761C0399481E99
:102D700003900029F1DCFBE60928010030313233F1
:102D800034353637383961626364656600000000A7
:102D90003031323334353637383941424344454691
:102DA00000000000F8B5044600251E4617468804BA
:102DB00004D405E039462020B0476D1C641EF9D5C7
:102DC0002846F8BDFFB50446002581B01E46C8035D
:102DD00001D5302700E02027880404D505E03846D7
:102DE0000399B0476D1C641EF9D5284605B0F0BDA7
:102DF0000A68531C0B601070704739F52D000207EC
:102E00000B0714071D0726072F07380741074A0736
:102E100053075C0765076E077707800789079207E6
:102E20009B07A407AD07B607BF07C807D107DA0796
:102E3000E307EC07F507FE07070810081908220842
:102E40002B0834083D0846084F08580861086A08EE
:102E500073087C0885088E089708A008A908B2089E
:102E6000BB08C408CD08D608DF08E808F108FA084E
:102E700003090C0915091E091E091E091E091E0950
:102E80001E091E091E091E091E091E0981098A093B
:102E900093099C09A509AE09B709C009C909D20956
:102EA000DB09E409ED09F609FF09080A110A1A0A03
:102EB000230A2C0A350A3E0A470A500A590A620AAE
:102EC0006B0A740A7D0A860A8F0A980AA10AAA0A5E
:102ED000B30ABC0AC50ACE0AD70AE00AE90AF20A0E
:102EE000FB0A040B0D0B160B1F0B210B210B210BE7
:102EF000210B210B210B210B210B210B210B00009E
:102F0000303132333435363738394142434445461F
:102F100000000000342F00000000002068000000C6
:102F20005E2900009C2F000068000020A80400001B
:102F30006C2900000000800200000000002F00004B
:102F40000000000000000000000000003900000048
:102F5000390000003900000039000000390000008D
:102F600000000000000000001E000000B81E85EBFD
:102F700051B8F63F0000000000000000B81E85EBCD
:102F800051B8BE3F00B003400000000000F00F4009
:0C2F90000500000000F00F4004000000ED
:04000005000000C136
:00000001FF
